{
  "_format": "hh-sol-artifact-1",
  "contractName": "DappMrkt",
  "sourceName": "contracts/DappMrkt.sol",
  "abi": [
    {
      "inputs": [
        {
          "internalType": "uint256",
          "name": "_taxPercent",
          "type": "uint256"
        },
        {
          "internalType": "uint256",
          "name": "_securityFee",
          "type": "uint256"
        }
      ],
      "stateMutability": "nonpayable",
      "type": "constructor"
    },
    {
      "anonymous": false,
      "inputs": [
        {
          "indexed": true,
          "internalType": "address",
          "name": "previousOwner",
          "type": "address"
        },
        {
          "indexed": true,
          "internalType": "address",
          "name": "newOwner",
          "type": "address"
        }
      ],
      "name": "OwnershipTransferred",
      "type": "event"
    },
    {
      "inputs": [
        {
          "internalType": "uint256",
          "name": "aid",
          "type": "uint256"
        },
        {
          "internalType": "string",
          "name": "reviewText",
          "type": "string"
        },
        {
          "internalType": "uint256",
          "name": "rating",
          "type": "uint256"
        }
      ],
      "name": "addReview",
      "outputs": [],
      "stateMutability": "nonpayable",
      "type": "function"
    },
    {
      "inputs": [
        {
          "internalType": "uint256",
          "name": "aid",
          "type": "uint256"
        },
        {
          "internalType": "uint256",
          "name": "purchaseId",
          "type": "uint256"
        }
      ],
      "name": "approveProduct",
      "outputs": [],
      "stateMutability": "nonpayable",
      "type": "function"
    },
    {
      "inputs": [
        {
          "internalType": "uint256",
          "name": "aid",
          "type": "uint256"
        },
        {
          "internalType": "uint256",
          "name": "quantity",
          "type": "uint256"
        },
        {
          "internalType": "uint256[]",
          "name": "dates",
          "type": "uint256[]"
        }
      ],
      "name": "buyProduct",
      "outputs": [],
      "stateMutability": "payable",
      "type": "function"
    },
    {
      "inputs": [
        {
          "internalType": "string",
          "name": "name",
          "type": "string"
        },
        {
          "internalType": "string",
          "name": "description",
          "type": "string"
        },
        {
          "internalType": "string",
          "name": "location",
          "type": "string"
        },
        {
          "internalType": "string",
          "name": "images",
          "type": "string"
        },
        {
          "internalType": "uint256",
          "name": "listings",
          "type": "uint256"
        },
        {
          "internalType": "uint256",
          "name": "price",
          "type": "uint256"
        },
        {
          "internalType": "string",
          "name": "category",
          "type": "string"
        }
      ],
      "name": "createProduct",
      "outputs": [],
      "stateMutability": "nonpayable",
      "type": "function"
    },
    {
      "inputs": [
        {
          "internalType": "uint256",
          "name": "productId",
          "type": "uint256"
        }
      ],
      "name": "customerPurchased",
      "outputs": [
        {
          "internalType": "bool",
          "name": "",
          "type": "bool"
        }
      ],
      "stateMutability": "view",
      "type": "function"
    },
    {
      "inputs": [
        {
          "internalType": "uint256",
          "name": "id",
          "type": "uint256"
        }
      ],
      "name": "deleteProduct",
      "outputs": [],
      "stateMutability": "nonpayable",
      "type": "function"
    },
    {
      "inputs": [
        {
          "internalType": "uint256",
          "name": "id",
          "type": "uint256"
        }
      ],
      "name": "getProduct",
      "outputs": [
        {
          "components": [
            {
              "internalType": "uint256",
              "name": "id",
              "type": "uint256"
            },
            {
              "internalType": "string",
              "name": "name",
              "type": "string"
            },
            {
              "internalType": "string",
              "name": "description",
              "type": "string"
            },
            {
              "internalType": "string",
              "name": "location",
              "type": "string"
            },
            {
              "internalType": "string",
              "name": "images",
              "type": "string"
            },
            {
              "internalType": "uint256",
              "name": "listings",
              "type": "uint256"
            },
            {
              "internalType": "uint256",
              "name": "price",
              "type": "uint256"
            },
            {
              "internalType": "string",
              "name": "category",
              "type": "string"
            },
            {
              "internalType": "address",
              "name": "owner",
              "type": "address"
            },
            {
              "internalType": "bool",
              "name": "purchased",
              "type": "bool"
            },
            {
              "internalType": "bool",
              "name": "deleted",
              "type": "bool"
            },
            {
              "internalType": "uint256",
              "name": "timestamp",
              "type": "uint256"
            }
          ],
          "internalType": "struct DappMrkt.ProductStruct",
          "name": "",
          "type": "tuple"
        }
      ],
      "stateMutability": "view",
      "type": "function"
    },
    {
      "inputs": [],
      "name": "getProducts",
      "outputs": [
        {
          "components": [
            {
              "internalType": "uint256",
              "name": "id",
              "type": "uint256"
            },
            {
              "internalType": "string",
              "name": "name",
              "type": "string"
            },
            {
              "internalType": "string",
              "name": "description",
              "type": "string"
            },
            {
              "internalType": "string",
              "name": "location",
              "type": "string"
            },
            {
              "internalType": "string",
              "name": "images",
              "type": "string"
            },
            {
              "internalType": "uint256",
              "name": "listings",
              "type": "uint256"
            },
            {
              "internalType": "uint256",
              "name": "price",
              "type": "uint256"
            },
            {
              "internalType": "string",
              "name": "category",
              "type": "string"
            },
            {
              "internalType": "address",
              "name": "owner",
              "type": "address"
            },
            {
              "internalType": "bool",
              "name": "purchased",
              "type": "bool"
            },
            {
              "internalType": "bool",
              "name": "deleted",
              "type": "bool"
            },
            {
              "internalType": "uint256",
              "name": "timestamp",
              "type": "uint256"
            }
          ],
          "internalType": "struct DappMrkt.ProductStruct[]",
          "name": "Products",
          "type": "tuple[]"
        }
      ],
      "stateMutability": "view",
      "type": "function"
    },
    {
      "inputs": [
        {
          "internalType": "uint256",
          "name": "aid",
          "type": "uint256"
        },
        {
          "internalType": "uint256",
          "name": "purchaseId",
          "type": "uint256"
        }
      ],
      "name": "getPurchase",
      "outputs": [
        {
          "components": [
            {
              "internalType": "uint256",
              "name": "id",
              "type": "uint256"
            },
            {
              "internalType": "uint256",
              "name": "aid",
              "type": "uint256"
            },
            {
              "internalType": "address",
              "name": "customer",
              "type": "address"
            },
            {
              "internalType": "uint256",
              "name": "date",
              "type": "uint256"
            },
            {
              "internalType": "uint256",
              "name": "quantity",
              "type": "uint256"
            },
            {
              "internalType": "uint256",
              "name": "price",
              "type": "uint256"
            },
            {
              "internalType": "bool",
              "name": "checked",
              "type": "bool"
            },
            {
              "internalType": "bool",
              "name": "cancelled",
              "type": "bool"
            }
          ],
          "internalType": "struct DappMrkt.PurchaseStruct",
          "name": "",
          "type": "tuple"
        }
      ],
      "stateMutability": "view",
      "type": "function"
    },
    {
      "inputs": [
        {
          "internalType": "uint256",
          "name": "aid",
          "type": "uint256"
        }
      ],
      "name": "getPurchases",
      "outputs": [
        {
          "components": [
            {
              "internalType": "uint256",
              "name": "id",
              "type": "uint256"
            },
            {
              "internalType": "uint256",
              "name": "aid",
              "type": "uint256"
            },
            {
              "internalType": "address",
              "name": "customer",
              "type": "address"
            },
            {
              "internalType": "uint256",
              "name": "date",
              "type": "uint256"
            },
            {
              "internalType": "uint256",
              "name": "quantity",
              "type": "uint256"
            },
            {
              "internalType": "uint256",
              "name": "price",
              "type": "uint256"
            },
            {
              "internalType": "bool",
              "name": "checked",
              "type": "bool"
            },
            {
              "internalType": "bool",
              "name": "cancelled",
              "type": "bool"
            }
          ],
          "internalType": "struct DappMrkt.PurchaseStruct[]",
          "name": "",
          "type": "tuple[]"
        }
      ],
      "stateMutability": "view",
      "type": "function"
    },
    {
      "inputs": [
        {
          "internalType": "uint256",
          "name": "aid",
          "type": "uint256"
        }
      ],
      "name": "getQualifiedReviewers",
      "outputs": [
        {
          "internalType": "address[]",
          "name": "Customers",
          "type": "address[]"
        }
      ],
      "stateMutability": "view",
      "type": "function"
    },
    {
      "inputs": [
        {
          "internalType": "uint256",
          "name": "aid",
          "type": "uint256"
        }
      ],
      "name": "getReviews",
      "outputs": [
        {
          "components": [
            {
              "internalType": "uint256",
              "name": "id",
              "type": "uint256"
            },
            {
              "internalType": "uint256",
              "name": "aid",
              "type": "uint256"
            },
            {
              "internalType": "string",
              "name": "reviewText",
              "type": "string"
            },
            {
              "internalType": "uint256",
              "name": "rating",
              "type": "uint256"
            },
            {
              "internalType": "uint256",
              "name": "timestamp",
              "type": "uint256"
            },
            {
              "internalType": "address",
              "name": "owner",
              "type": "address"
            }
          ],
          "internalType": "struct DappMrkt.ReviewStruct[]",
          "name": "",
          "type": "tuple[]"
        }
      ],
      "stateMutability": "view",
      "type": "function"
    },
    {
      "inputs": [
        {
          "internalType": "uint256",
          "name": "aid",
          "type": "uint256"
        }
      ],
      "name": "getUnavailableDates",
      "outputs": [
        {
          "internalType": "uint256[]",
          "name": "",
          "type": "uint256[]"
        }
      ],
      "stateMutability": "view",
      "type": "function"
    },
    {
      "inputs": [],
      "name": "owner",
      "outputs": [
        {
          "internalType": "address",
          "name": "",
          "type": "address"
        }
      ],
      "stateMutability": "view",
      "type": "function"
    },
    {
      "inputs": [
        {
          "internalType": "uint256",
          "name": "aid",
          "type": "uint256"
        },
        {
          "internalType": "uint256",
          "name": "purchaseId",
          "type": "uint256"
        }
      ],
      "name": "refundPurchase",
      "outputs": [],
      "stateMutability": "nonpayable",
      "type": "function"
    },
    {
      "inputs": [],
      "name": "renounceOwnership",
      "outputs": [],
      "stateMutability": "nonpayable",
      "type": "function"
    },
    {
      "inputs": [],
      "name": "securityFee",
      "outputs": [
        {
          "internalType": "uint256",
          "name": "",
          "type": "uint256"
        }
      ],
      "stateMutability": "view",
      "type": "function"
    },
    {
      "inputs": [],
      "name": "taxPercent",
      "outputs": [
        {
          "internalType": "uint256",
          "name": "",
          "type": "uint256"
        }
      ],
      "stateMutability": "view",
      "type": "function"
    },
    {
      "inputs": [
        {
          "internalType": "address",
          "name": "newOwner",
          "type": "address"
        }
      ],
      "name": "transferOwnership",
      "outputs": [],
      "stateMutability": "nonpayable",
      "type": "function"
    },
    {
      "inputs": [
        {
          "internalType": "uint256",
          "name": "id",
          "type": "uint256"
        },
        {
          "internalType": "string",
          "name": "name",
          "type": "string"
        },
        {
          "internalType": "string",
          "name": "description",
          "type": "string"
        },
        {
          "internalType": "string",
          "name": "location",
          "type": "string"
        },
        {
          "internalType": "string",
          "name": "images",
          "type": "string"
        },
        {
          "internalType": "uint256",
          "name": "listings",
          "type": "uint256"
        },
        {
          "internalType": "uint256",
          "name": "price",
          "type": "uint256"
        },
        {
          "internalType": "string",
          "name": "category",
          "type": "string"
        }
      ],
      "name": "updateProduct",
      "outputs": [],
      "stateMutability": "nonpayable",
      "type": "function"
    }
  ],
  "bytecode": "0x60806040523480156200001157600080fd5b506040516200352c3803806200352c8339810160408190526200003491620000a2565b6200003f3362000052565b60018055600491909155600355620000c7565b600080546001600160a01b038381166001600160a01b0319831681178455604051919092169283917f8be0079c531659141344cd1fd0a4f28419497f9722a3daafe3b4186f6b6457e09190a35050565b60008060408385031215620000b657600080fd5b505080516020909101519092909150565b61345580620000d76000396000f3fe60806040526004361061011f5760003560e01c80639c057846116100a0578063c29b2f2011610064578063c29b2f201461036f578063d68e130214610391578063db2f80b7146103a7578063ed90c7b7146103d4578063f2fde38b146103f457600080fd5b80639c057846146102c25780639d4a2255146102e2578063acd416ed1461030f578063b9db15b414610322578063ba545d621461034f57600080fd5b8063715018a6116100e7578063715018a6146101f65780637541f41c1461020b57806384aa4a8e1461022f5780638da5cb5b1461027a57806394cdf85f146102a257600080fd5b80630bb9ce33146101245780631ed7bf1c1461015a57806336b970b41461017c5780633bc701841461019c5780636f629ed5146101c9575b600080fd5b34801561013057600080fd5b5061014461013f366004612a5a565b610414565b6040516101519190612a73565b60405180910390f35b34801561016657600080fd5b5061017a610175366004612ac0565b6105bd565b005b34801561018857600080fd5b5061017a610197366004612b99565b610943565b3480156101a857600080fd5b506101bc6101b7366004612ac0565b6110a9565b6040516101519190612ce2565b3480156101d557600080fd5b506101e96101e4366004612a5a565b611156565b6040516101519190612cf1565b34801561020257600080fd5b5061017a611227565b34801561021757600080fd5b5061022160045481565b604051908152602001610151565b34801561023b57600080fd5b5061026a61024a366004612a5a565b336000908152600b60209081526040808320938352929052205460ff1690565b6040519015158152602001610151565b34801561028657600080fd5b506000546040516001600160a01b039091168152602001610151565b3480156102ae57600080fd5b5061017a6102bd366004612d34565b61123b565b3480156102ce57600080fd5b5061017a6102dd366004612ac0565b6114b5565b3480156102ee57600080fd5b506103026102fd366004612a5a565b611683565b6040516101519190612dca565b61017a61031d366004612e72565b6117bd565b34801561032e57600080fd5b5061034261033d366004612a5a565b611ae7565b6040516101519190613016565b34801561035b57600080fd5b5061017a61036a366004613030565b611e4d565b34801561037b57600080fd5b506103846121e0565b6040516101519190613115565b34801561039d57600080fd5b5061022160035481565b3480156103b357600080fd5b506103c76103c2366004612a5a565b61264d565b6040516101519190613177565b3480156103e057600080fd5b5061017a6103ef366004612a5a565b6126af565b34801561040057600080fd5b5061017a61040f3660046131af565b61279a565b60606000805b60008481526006602052604090205481101561048c576000848152600660205260409020805482908110610450576104506131d8565b600091825260209091206006600790920201015460ff161561047a578161047681613204565b9250505b8061048481613204565b91505061041a565b508067ffffffffffffffff8111156104a6576104a6612ae2565b6040519080825280602002602001820160405280156104cf578160200160208202803683370190505b5091506000805b6000858152600660205260409020548110156105b557600085815260066020526040902080548290811061050c5761050c6131d8565b600091825260209091206006600790920201015460ff16156105a3576000858152600660205260409020805482908110610548576105486131d8565b60009182526020909120600260079092020101546001600160a01b0316848361057081613204565b945081518110610582576105826131d8565b60200260200101906001600160a01b031690816001600160a01b0316815250505b806105ad81613204565b9150506104d6565b505050919050565b6105c5612813565b60008281526006602052604081208054839081106105e5576105e56131d8565b600091825260209182902060408051610100808201835260079094029092018054835260018101549483019490945260028401546001600160a01b0316908201526003830154606082015260048301546080820152600583015460a082015260069092015460ff80821615801560c08601529290910416151560e083015290915061068b5760405162461bcd60e51b81526004016106829061321d565b60405180910390fd5b6000838152600a602090815260408083206060850151845290915290205460ff166106f85760405162461bcd60e51b815260206004820152601e60248201527f446964206e6f74207075726368617365206f6e207468697320646174652100006044820152606401610682565b6000546001600160a01b031633146107685780604001516001600160a01b0316336001600160a01b0316146107685760405162461bcd60e51b8152602060048201526016602482015275556e617574686f72697a656420637573746f6d65722160501b6044820152606401610682565b60008381526006602052604090208054600191908490811061078c5761078c6131d8565b6000918252602080832060066007909302019190910180549315156101000261ff001990941693909317909255848152600a82526040808220606085015183528352808220805460ff19169055858252600990925290812054905b818110156108d95760608301516000868152600960205260409020805483908110610814576108146131d8565b9060005260206000200154036108c757600085815260096020526040902061083d600184613262565b8154811061084d5761084d6131d8565b906000526020600020015460096000878152602001908152602001600020828154811061087c5761087c6131d8565b9060005260206000200181905550600960008681526020019081526020016000208054806108ac576108ac613275565b600190038181906000526020600020016000905590556108d9565b806108d181613204565b9150506107e7565b50600060646003548460a001516108f0919061328b565b6108fa91906132a2565b6000868152600560205260409020600801549091508190610924906001600160a01b03168261286c565b610932338560a0015161286c565b5050505061093f60018055565b5050565b60008881526008602052604090205460ff16151560011461099a5760405162461bcd60e51b8152602060048201526011602482015270141c9bd91d58dd081b9bdd08199bdd5b99607a1b6044820152606401610682565b6000888152600560205260409020600801546001600160a01b03163314610a0e5760405162461bcd60e51b815260206004820152602260248201527f556e617574686f72697a656420706572736f6e6e656c2c206f776e6572206f6e6044820152616c7960f01b6064820152608401610682565b6000875111610a565760405162461bcd60e51b81526020600482015260146024820152734e616d652063616e6e6f7420626520656d70747960601b6044820152606401610682565b6000865111610aa75760405162461bcd60e51b815260206004820152601b60248201527f4465736372697074696f6e2063616e6e6f7420626520656d70747900000000006044820152606401610682565b6000855111610af35760405162461bcd60e51b81526020600482015260186024820152774c6f636174696f6e2063616e6e6f7420626520656d70747960401b6044820152606401610682565b6000845111610b3d5760405162461bcd60e51b8152602060048201526016602482015275496d616765732063616e6e6f7420626520656d70747960501b6044820152606401610682565b60008311610b875760405162461bcd60e51b81526020600482015260176024820152764c697374696e67732063616e6e6f74206265207a65726f60481b6044820152606401610682565b60008211610bce5760405162461bcd60e51b815260206004820152601460248201527350726963652063616e6e6f74206265207a65726f60601b6044820152606401610682565b6000815111610c1a5760405162461bcd60e51b815260206004820152601860248201527743617465676f72792063616e6e6f7420626520656d70747960401b6044820152606401610682565b6000600560008a81526020019081526020016000206040518061018001604052908160008201548152602001600182018054610c55906132c4565b80601f0160208091040260200160405190810160405280929190818152602001828054610c81906132c4565b8015610cce5780601f10610ca357610100808354040283529160200191610cce565b820191906000526020600020905b815481529060010190602001808311610cb157829003601f168201915b50505050508152602001600282018054610ce7906132c4565b80601f0160208091040260200160405190810160405280929190818152602001828054610d13906132c4565b8015610d605780601f10610d3557610100808354040283529160200191610d60565b820191906000526020600020905b815481529060010190602001808311610d4357829003601f168201915b50505050508152602001600382018054610d79906132c4565b80601f0160208091040260200160405190810160405280929190818152602001828054610da5906132c4565b8015610df25780601f10610dc757610100808354040283529160200191610df2565b820191906000526020600020905b815481529060010190602001808311610dd557829003601f168201915b50505050508152602001600482018054610e0b906132c4565b80601f0160208091040260200160405190810160405280929190818152602001828054610e37906132c4565b8015610e845780601f10610e5957610100808354040283529160200191610e84565b820191906000526020600020905b815481529060010190602001808311610e6757829003601f168201915b505050505081526020016005820154815260200160068201548152602001600782018054610eb1906132c4565b80601f0160208091040260200160405190810160405280929190818152602001828054610edd906132c4565b8015610f2a5780601f10610eff57610100808354040283529160200191610f2a565b820191906000526020600020905b815481529060010190602001808311610f0d57829003601f168201915b505050918352505060088201546001600160a01b03811660208084019190915260ff600160a01b830481161515604080860191909152600160a81b9093041615156060808501919091526009909401546080938401528481018d81528583018d90529385018b905291840189905260a0840188905260c0840187905260e0840186905260008d81526005909252902082518155905191925082916001820190610fd3908261334c565b5060408201516002820190610fe8908261334c565b5060608201516003820190610ffd908261334c565b5060808201516004820190611012908261334c565b5060a0820151600582015560c0820151600682015560e0820151600782019061103b908261334c565b506101008201516008820180546101208501516101408601511515600160a81b0260ff60a81b19911515600160a01b026001600160a81b03199093166001600160a01b0390951694909417919091171691909117905561016090910151600990910155505050505050505050565b6110b161299a565b60008381526006602052604090208054839081106110d1576110d16131d8565b600091825260209182902060408051610100808201835260079094029092018054835260018101549483019490945260028401546001600160a01b0316908201526003830154606082015260048301546080820152600583015460a082015260069092015460ff808216151560c085015291900416151560e082015290505b92915050565b606060066000838152602001908152602001600020805480602002602001604051908101604052809291908181526020016000905b8282101561121c57600084815260209081902060408051610100808201835260078702909301805482526001808201548387015260028201546001600160a01b0316938301939093526003810154606083015260048101546080830152600581015460a08301526006015460ff808216151560c0840152939004909216151560e0830152908352909201910161118b565b505050509050919050565b61122f6128d1565b611239600061292b565b565b60008381526008602052604090205460ff166112915760405162461bcd60e51b815260206004820152601560248201527450726f64756374206e6f7420617661696c61626c6560581b6044820152606401610682565b336000908152600b6020908152604080832086845290915290205460ff166112fb5760405162461bcd60e51b815260206004820152601c60248201527f5075726368617365206669727374206265666f726520726576696577000000006044820152606401610682565b600082511161134c5760405162461bcd60e51b815260206004820152601b60248201527f52657669657720746578742063616e6e6f7420626520656d70747900000000006044820152606401610682565b6001811015801561135e575060058111155b6113aa5760405162461bcd60e51b815260206004820152601e60248201527f526174696e67206d757374206265206265747765656e203120616e64203500006044820152606401610682565b6113ec6040518060c00160405280600081526020016000815260200160608152602001600081526020016000815260200160006001600160a01b031681525090565b60208082018590526000858152600790915260409081902054825281018390526060810182905261141b61297b565b60808201523360a0820152600084815260076020908152604080832080546001818101835591855293839020855160069095020193845591840151918301919091558201518291906002820190611472908261334c565b50606082015160038201556080820151600482015560a090910151600590910180546001600160a01b0319166001600160a01b0390921691909117905550505050565b60008281526006602052604081208054839081106114d5576114d56131d8565b600091825260209182902060408051610100808201835260079094029092018054835260018101549483019490945260028401546001600160a01b03169082018190526003840154606083015260048401546080830152600584015460a083015260069093015460ff808216151560c0840152929004909116151560e08201529150331461159e5760405162461bcd60e51b8152602060048201526016602482015275556e617574686f72697a656420637573746f6d65722160501b6044820152606401610682565b8060c00151156115c05760405162461bcd60e51b81526004016106829061321d565b6000838152600660205260409020805460019190849081106115e4576115e46131d8565b60009182526020822060079190910201600601805460ff19169215159290921790915560035460a083015160649161161b9161328b565b61162591906132a2565b336000908152600b602090815260408083208884528252808320805460ff19166001179055600590915290206008015460a0840151919250611673916001600160a01b03919091169061286c565b61167d338261286c565b50505050565b606060076000838152602001908152602001600020805480602002602001604051908101604052809291908181526020016000905b8282101561121c57838290600052602060002090600602016040518060c001604052908160008201548152602001600182015481526020016002820180546116ff906132c4565b80601f016020809104026020016040519081016040528092919081815260200182805461172b906132c4565b80156117785780601f1061174d57610100808354040283529160200191611778565b820191906000526020600020905b81548152906001019060200180831161175b57829003601f168201915b50505091835250506003820154602080830191909152600483015460408301526005909201546001600160a01b031660609091015290825260019290920191016116b8565b60008381526008602052604090205460ff166118105760405162461bcd60e51b815260206004820152601260248201527150726f64756374206e6f7420666f756e642160701b6044820152606401610682565b6000821180156118325750600083815260056020819052604090912001548211155b6118725760405162461bcd60e51b8152602060048201526011602482015270496e76616c6964207175616e746974792160781b6044820152606401610682565b60008381526005602052604081206006015461188f90849061328b565b905060006064600354836118a3919061328b565b6118ad91906132a2565b6118b7908361340c565b9050803410156118fe5760405162461bcd60e51b8152602060048201526012602482015271496e73756666696369656e742066756e642160701b6044820152606401610682565b60005b84811015611ab95761191161299a565b60208082018890526000888152600680835260408083205485523381860152600160808601528a83526005909352919020015460a0820152845185908390811061195d5761195d6131d8565b6020908102919091018101516060830190815260008981526006808452604080832080546001818101835591855286852088516007909202019081558787015181830155828801516002820180546001600160a01b039092166001600160a01b0319909216919091179055945160038601556080870151600486015560a0870151600586015560c087015194909201805460e088015115156101000261ff00199615159690961661ffff1990911617949094179093558a8252600a9093529081208751909190889086908110611a3557611a356131d8565b6020026020010151815260200190815260200160002060006101000a81548160ff02191690831515021790555060096000888152602001908152602001600020858381518110611a8757611a876131d8565b602090810291909101810151825460018101845560009384529190922001555080611ab181613204565b915050611901565b5060008581526005602081905260408220018054869290611adb908490613262565b90915550505050505050565b611aef6129ec565b600560008381526020019081526020016000206040518061018001604052908160008201548152602001600182018054611b28906132c4565b80601f0160208091040260200160405190810160405280929190818152602001828054611b54906132c4565b8015611ba15780601f10611b7657610100808354040283529160200191611ba1565b820191906000526020600020905b815481529060010190602001808311611b8457829003601f168201915b50505050508152602001600282018054611bba906132c4565b80601f0160208091040260200160405190810160405280929190818152602001828054611be6906132c4565b8015611c335780601f10611c0857610100808354040283529160200191611c33565b820191906000526020600020905b815481529060010190602001808311611c1657829003601f168201915b50505050508152602001600382018054611c4c906132c4565b80601f0160208091040260200160405190810160405280929190818152602001828054611c78906132c4565b8015611cc55780601f10611c9a57610100808354040283529160200191611cc5565b820191906000526020600020905b815481529060010190602001808311611ca857829003601f168201915b50505050508152602001600482018054611cde906132c4565b80601f0160208091040260200160405190810160405280929190818152602001828054611d0a906132c4565b8015611d575780601f10611d2c57610100808354040283529160200191611d57565b820191906000526020600020905b815481529060010190602001808311611d3a57829003601f168201915b505050505081526020016005820154815260200160068201548152602001600782018054611d84906132c4565b80601f0160208091040260200160405190810160405280929190818152602001828054611db0906132c4565b8015611dfd5780601f10611dd257610100808354040283529160200191611dfd565b820191906000526020600020905b815481529060010190602001808311611de057829003601f168201915b505050918352505060088201546001600160a01b038116602083015260ff600160a01b8204811615156040840152600160a81b909104161515606082015260099091015460809091015292915050565b6000875111611e955760405162461bcd60e51b81526020600482015260146024820152734e616d652063616e6e6f7420626520656d70747960601b6044820152606401610682565b6000865111611ee65760405162461bcd60e51b815260206004820152601b60248201527f4465736372697074696f6e2063616e6e6f7420626520656d70747900000000006044820152606401610682565b6000855111611f325760405162461bcd60e51b81526020600482015260186024820152774c6f636174696f6e2063616e6e6f7420626520656d70747960401b6044820152606401610682565b6000845111611f7c5760405162461bcd60e51b8152602060048201526016602482015275496d616765732063616e6e6f7420626520656d70747960501b6044820152606401610682565b60008311611fc65760405162461bcd60e51b81526020600482015260176024820152764c697374696e67732063616e6e6f74206265207a65726f60481b6044820152606401610682565b6000821161200d5760405162461bcd60e51b815260206004820152601460248201527350726963652063616e6e6f74206265207a65726f60601b6044820152606401610682565b60008151116120595760405162461bcd60e51b815260206004820152601860248201527743617465676f72792063616e6e6f7420626520656d70747960401b6044820152606401610682565b612067600280546001019055565b61206f6129ec565b60025481526020810188905260408101879052606081018690526080810185905260a0810184905260c0810183905260e08101829052336101008201526120b461297b565b61016082015280516000908152600860205260408120805460ff1916600117905581906005906120e360025490565b81526020808201929092526040016000208251815590820151600182019061210b908261334c565b5060408201516002820190612120908261334c565b5060608201516003820190612135908261334c565b506080820151600482019061214a908261334c565b5060a0820151600582015560c0820151600682015560e08201516007820190612173908261334c565b506101008201516008820180546101208501516101408601511515600160a81b0260ff60a81b19911515600160a01b026001600160a81b03199093166001600160a01b03909516949094179190911716919091179055610160909101516009909101555050505050505050565b6060600060015b600254811161223057600081815260056020526040902060080154600160a81b900460ff1661221e578161221a81613204565b9250505b8061222881613204565b9150506121e7565b508067ffffffffffffffff81111561224a5761224a612ae2565b60405190808252806020026020018201604052801561228357816020015b6122706129ec565b8152602001906001900390816122685790505b509150600060015b600254811161264757600081815260056020526040902060080154600160a81b900460ff16612635576005600082815260200190815260200160002060405180610180016040529081600082015481526020016001820180546122ed906132c4565b80601f0160208091040260200160405190810160405280929190818152602001828054612319906132c4565b80156123665780601f1061233b57610100808354040283529160200191612366565b820191906000526020600020905b81548152906001019060200180831161234957829003601f168201915b5050505050815260200160028201805461237f906132c4565b80601f01602080910402602001604051908101604052809291908181526020018280546123ab906132c4565b80156123f85780601f106123cd576101008083540402835291602001916123f8565b820191906000526020600020905b8154815290600101906020018083116123db57829003601f168201915b50505050508152602001600382018054612411906132c4565b80601f016020809104026020016040519081016040528092919081815260200182805461243d906132c4565b801561248a5780601f1061245f5761010080835404028352916020019161248a565b820191906000526020600020905b81548152906001019060200180831161246d57829003601f168201915b505050505081526020016004820180546124a3906132c4565b80601f01602080910402602001604051908101604052809291908181526020018280546124cf906132c4565b801561251c5780601f106124f15761010080835404028352916020019161251c565b820191906000526020600020905b8154815290600101906020018083116124ff57829003601f168201915b505050505081526020016005820154815260200160068201548152602001600782018054612549906132c4565b80601f0160208091040260200160405190810160405280929190818152602001828054612575906132c4565b80156125c25780601f10612597576101008083540402835291602001916125c2565b820191906000526020600020905b8154815290600101906020018083116125a557829003601f168201915b505050918352505060088201546001600160a01b038116602083015260ff600160a01b8204811615156040840152600160a81b9091041615156060820152600990910154608090910152848361261781613204565b945081518110612629576126296131d8565b60200260200101819052505b8061263f81613204565b91505061228b565b50505090565b6000818152600960209081526040918290208054835181840281018401909452808452606093928301828280156126a357602002820191906000526020600020905b81548152602001906001019080831161268f575b50505050509050919050565b60008181526008602052604090205460ff1615156001146127065760405162461bcd60e51b8152602060048201526011602482015270141c9bd91d58dd081b9bdd08199bdd5b99607a1b6044820152606401610682565b6000818152600560205260409020600801546001600160a01b031633146127655760405162461bcd60e51b8152602060048201526013602482015272556e617574686f72697a656420656e7469747960681b6044820152606401610682565b6000908152600860208181526040808420805460ff19169055600590915290912001805460ff60a81b1916600160a81b179055565b6127a26128d1565b6001600160a01b0381166128075760405162461bcd60e51b815260206004820152602660248201527f4f776e61626c653a206e6577206f776e657220697320746865207a65726f206160448201526564647265737360d01b6064820152608401610682565b6128108161292b565b50565b6002600154036128655760405162461bcd60e51b815260206004820152601f60248201527f5265656e7472616e637947756172643a207265656e7472616e742063616c6c006044820152606401610682565b6002600155565b6000826001600160a01b03168260405160006040518083038185875af1925050503d80600081146128b9576040519150601f19603f3d011682016040523d82523d6000602084013e6128be565b606091505b50509050806128cc57600080fd5b505050565b6000546001600160a01b031633146112395760405162461bcd60e51b815260206004820181905260248201527f4f776e61626c653a2063616c6c6572206973206e6f7420746865206f776e65726044820152606401610682565b600080546001600160a01b038381166001600160a01b0319831681178455604051919092169283917f8be0079c531659141344cd1fd0a4f28419497f9722a3daafe3b4186f6b6457e09190a35050565b6000612989426103e861328b565b612995906103e861340c565b905090565b604051806101000160405280600081526020016000815260200160006001600160a01b031681526020016000815260200160008152602001600081526020016000151581526020016000151581525090565b604051806101800160405280600081526020016060815260200160608152602001606081526020016060815260200160008152602001600081526020016060815260200160006001600160a01b03168152602001600015158152602001600015158152602001600081525090565b600060208284031215612a6c57600080fd5b5035919050565b6020808252825182820181905260009190848201906040850190845b81811015612ab45783516001600160a01b031683529284019291840191600101612a8f565b50909695505050505050565b60008060408385031215612ad357600080fd5b50508035926020909101359150565b634e487b7160e01b600052604160045260246000fd5b604051601f8201601f1916810167ffffffffffffffff81118282101715612b2157612b21612ae2565b604052919050565b600082601f830112612b3a57600080fd5b813567ffffffffffffffff811115612b5457612b54612ae2565b612b67601f8201601f1916602001612af8565b818152846020838601011115612b7c57600080fd5b816020850160208301376000918101602001919091529392505050565b600080600080600080600080610100898b031215612bb657600080fd5b88359750602089013567ffffffffffffffff80821115612bd557600080fd5b612be18c838d01612b29565b985060408b0135915080821115612bf757600080fd5b612c038c838d01612b29565b975060608b0135915080821115612c1957600080fd5b612c258c838d01612b29565b965060808b0135915080821115612c3b57600080fd5b612c478c838d01612b29565b955060a08b0135945060c08b0135935060e08b0135915080821115612c6b57600080fd5b50612c788b828c01612b29565b9150509295985092959890939650565b805182526020810151602083015260018060a01b036040820151166040830152606081015160608301526080810151608083015260a081015160a083015260c0810151151560c083015260e0810151151560e08301525050565b61010081016111508284612c88565b6020808252825182820181905260009190848201906040850190845b81811015612ab457612d20838551612c88565b928401926101009290920191600101612d0d565b600080600060608486031215612d4957600080fd5b83359250602084013567ffffffffffffffff811115612d6757600080fd5b612d7386828701612b29565b925050604084013590509250925092565b6000815180845260005b81811015612daa57602081850181015186830182015201612d8e565b506000602082860101526020601f19601f83011685010191505092915050565b60006020808301818452808551808352604092508286019150828160051b87010184880160005b83811015612e6457603f19898403018552815160c0815185528882015189860152878201518189870152612e2782870182612d84565b606084810151908801526080808501519088015260a0938401516001600160a01b0316939096019290925250509386019390860190600101612df1565b509098975050505050505050565b600080600060608486031215612e8757600080fd5b833592506020808501359250604085013567ffffffffffffffff80821115612eae57600080fd5b818701915087601f830112612ec257600080fd5b813581811115612ed457612ed4612ae2565b8060051b9150612ee5848301612af8565b818152918301840191848101908a841115612eff57600080fd5b938501935b83851015612f1d57843582529385019390850190612f04565b8096505050505050509250925092565b6000610180825184526020830151816020860152612f4d82860182612d84565b91505060408301518482036040860152612f678282612d84565b91505060608301518482036060860152612f818282612d84565b91505060808301518482036080860152612f9b8282612d84565b91505060a083015160a085015260c083015160c085015260e083015184820360e0860152612fc98282612d84565b91505061010080840151612fe7828701826001600160a01b03169052565b505061012083810151151590850152610140808401511515908501526101609283015192909301919091525090565b6020815260006130296020830184612f2d565b9392505050565b600080600080600080600060e0888a03121561304b57600080fd5b873567ffffffffffffffff8082111561306357600080fd5b61306f8b838c01612b29565b985060208a013591508082111561308557600080fd5b6130918b838c01612b29565b975060408a01359150808211156130a757600080fd5b6130b38b838c01612b29565b965060608a01359150808211156130c957600080fd5b6130d58b838c01612b29565b955060808a0135945060a08a0135935060c08a01359150808211156130f957600080fd5b506131068a828b01612b29565b91505092959891949750929550565b6000602080830181845280855180835260408601915060408160051b870101925083870160005b8281101561316a57603f19888603018452613158858351612f2d565b9450928501929085019060010161313c565b5092979650505050505050565b6020808252825182820181905260009190848201906040850190845b81811015612ab457835183529284019291840191600101613193565b6000602082840312156131c157600080fd5b81356001600160a01b038116811461302957600080fd5b634e487b7160e01b600052603260045260246000fd5b634e487b7160e01b600052601160045260246000fd5b600060018201613216576132166131ee565b5060010190565b60208082526025908201527f50726f6475637420616c726561647920636865636b6564206f6e207468697320604082015264646174652160d81b606082015260800190565b81810381811115611150576111506131ee565b634e487b7160e01b600052603160045260246000fd5b8082028115828204841417611150576111506131ee565b6000826132bf57634e487b7160e01b600052601260045260246000fd5b500490565b600181811c908216806132d857607f821691505b6020821081036132f857634e487b7160e01b600052602260045260246000fd5b50919050565b601f8211156128cc57600081815260208120601f850160051c810160208610156133255750805b601f850160051c820191505b8181101561334457828155600101613331565b505050505050565b815167ffffffffffffffff81111561336657613366612ae2565b61337a8161337484546132c4565b846132fe565b602080601f8311600181146133af57600084156133975750858301515b600019600386901b1c1916600185901b178555613344565b600085815260208120601f198616915b828110156133de578886015182559484019460019091019084016133bf565b50858210156133fc5787850151600019600388901b60f8161c191681555b5050505050600190811b01905550565b80820180821115611150576111506131ee56fea2646970667358221220ce06d7ce6d41938890578f4d1f6eb2323998e811c73bcf6fbaa3b508a95480f964736f6c63430008130033",
  "linkReferences": {},
  "deployedLinkReferences": {}
}